{
  "contractName": "Voting",
  "abi": [
    {
      "anonymous": false,
      "inputs": [
        {
          "indexed": true,
          "internalType": "address",
          "name": "previousOwner",
          "type": "address"
        },
        {
          "indexed": true,
          "internalType": "address",
          "name": "newOwner",
          "type": "address"
        }
      ],
      "name": "OwnershipTransferred",
      "type": "event"
    },
    {
      "anonymous": false,
      "inputs": [
        {
          "indexed": false,
          "internalType": "uint256",
          "name": "proposalId",
          "type": "uint256"
        }
      ],
      "name": "ProposalRegistered",
      "type": "event"
    },
    {
      "anonymous": false,
      "inputs": [
        {
          "indexed": false,
          "internalType": "address",
          "name": "voter",
          "type": "address"
        },
        {
          "indexed": false,
          "internalType": "uint256",
          "name": "proposalId",
          "type": "uint256"
        }
      ],
      "name": "Voted",
      "type": "event"
    },
    {
      "anonymous": false,
      "inputs": [
        {
          "indexed": false,
          "internalType": "address",
          "name": "voterAddress",
          "type": "address"
        }
      ],
      "name": "VoterRegistered",
      "type": "event"
    },
    {
      "anonymous": false,
      "inputs": [
        {
          "indexed": false,
          "internalType": "enum Voting.WorkflowStatus",
          "name": "previousStatus",
          "type": "uint8"
        },
        {
          "indexed": false,
          "internalType": "enum Voting.WorkflowStatus",
          "name": "newStatus",
          "type": "uint8"
        }
      ],
      "name": "WorkflowStatusChange",
      "type": "event"
    },
    {
      "inputs": [],
      "name": "owner",
      "outputs": [
        {
          "internalType": "address",
          "name": "",
          "type": "address"
        }
      ],
      "stateMutability": "view",
      "type": "function",
      "constant": true
    },
    {
      "inputs": [],
      "name": "renounceOwnership",
      "outputs": [],
      "stateMutability": "nonpayable",
      "type": "function"
    },
    {
      "inputs": [
        {
          "internalType": "address",
          "name": "newOwner",
          "type": "address"
        }
      ],
      "name": "transferOwnership",
      "outputs": [],
      "stateMutability": "nonpayable",
      "type": "function"
    },
    {
      "inputs": [],
      "name": "winningProposalID",
      "outputs": [
        {
          "internalType": "uint256",
          "name": "",
          "type": "uint256"
        }
      ],
      "stateMutability": "view",
      "type": "function",
      "constant": true
    },
    {
      "inputs": [],
      "name": "workflowStatus",
      "outputs": [
        {
          "internalType": "enum Voting.WorkflowStatus",
          "name": "",
          "type": "uint8"
        }
      ],
      "stateMutability": "view",
      "type": "function",
      "constant": true
    },
    {
      "inputs": [
        {
          "internalType": "address",
          "name": "_addr",
          "type": "address"
        }
      ],
      "name": "getVoter",
      "outputs": [
        {
          "components": [
            {
              "internalType": "bool",
              "name": "isRegistered",
              "type": "bool"
            },
            {
              "internalType": "bool",
              "name": "hasVoted",
              "type": "bool"
            },
            {
              "internalType": "uint256",
              "name": "votedProposalId",
              "type": "uint256"
            }
          ],
          "internalType": "struct Voting.Voter",
          "name": "",
          "type": "tuple"
        }
      ],
      "stateMutability": "view",
      "type": "function",
      "constant": true
    },
    {
      "inputs": [
        {
          "internalType": "uint256",
          "name": "_id",
          "type": "uint256"
        }
      ],
      "name": "getOneProposal",
      "outputs": [
        {
          "components": [
            {
              "internalType": "string",
              "name": "description",
              "type": "string"
            },
            {
              "internalType": "uint256",
              "name": "voteCount",
              "type": "uint256"
            }
          ],
          "internalType": "struct Voting.Proposal",
          "name": "",
          "type": "tuple"
        }
      ],
      "stateMutability": "view",
      "type": "function",
      "constant": true
    },
    {
      "inputs": [],
      "name": "getWinner",
      "outputs": [
        {
          "components": [
            {
              "internalType": "string",
              "name": "description",
              "type": "string"
            },
            {
              "internalType": "uint256",
              "name": "voteCount",
              "type": "uint256"
            }
          ],
          "internalType": "struct Voting.Proposal",
          "name": "",
          "type": "tuple"
        }
      ],
      "stateMutability": "view",
      "type": "function",
      "constant": true
    },
    {
      "inputs": [
        {
          "internalType": "address",
          "name": "_addr",
          "type": "address"
        }
      ],
      "name": "addVoter",
      "outputs": [],
      "stateMutability": "nonpayable",
      "type": "function"
    },
    {
      "inputs": [
        {
          "internalType": "string",
          "name": "_desc",
          "type": "string"
        }
      ],
      "name": "addProposal",
      "outputs": [],
      "stateMutability": "nonpayable",
      "type": "function"
    },
    {
      "inputs": [
        {
          "internalType": "uint256",
          "name": "_id",
          "type": "uint256"
        }
      ],
      "name": "setVote",
      "outputs": [],
      "stateMutability": "nonpayable",
      "type": "function"
    },
    {
      "inputs": [],
      "name": "startProposalsRegistering",
      "outputs": [],
      "stateMutability": "nonpayable",
      "type": "function"
    },
    {
      "inputs": [],
      "name": "endProposalsRegistering",
      "outputs": [],
      "stateMutability": "nonpayable",
      "type": "function"
    },
    {
      "inputs": [],
      "name": "startVotingSession",
      "outputs": [],
      "stateMutability": "nonpayable",
      "type": "function"
    },
    {
      "inputs": [],
      "name": "endVotingSession",
      "outputs": [],
      "stateMutability": "nonpayable",
      "type": "function"
    },
    {
      "inputs": [],
      "name": "tallyVotes",
      "outputs": [],
      "stateMutability": "nonpayable",
      "type": "function"
    }
  ],
  "bytecode": "0x60806040523480156200001157600080fd5b5062000032620000266200003860201b60201c565b6200004060201b60201c565b62000104565b600033905090565b60008060009054906101000a900473ffffffffffffffffffffffffffffffffffffffff169050816000806101000a81548173ffffffffffffffffffffffffffffffffffffffff021916908373ffffffffffffffffffffffffffffffffffffffff1602179055508173ffffffffffffffffffffffffffffffffffffffff168173ffffffffffffffffffffffffffffffffffffffff167f8be0079c531659141344cd1fd0a4f28419497f9722a3daafe3b4186f6b6457e060405160405180910390a35050565b61282e80620001146000396000f3fe608060405234801561001057600080fd5b50600436106101005760003560e01c8063a7bfab1611610097578063d4f50f9811610066578063d4f50f9814610217578063ee74c67814610247578063f2fde38b14610251578063f4ab9adf1461026d57610100565b8063a7bfab16146101db578063bdc01431146101e5578063c7038a4e14610203578063c88af42f1461020d57610100565b80638da5cb5b116100d35780638da5cb5b146101515780638e7ea5b21461016f578063a1edffa21461018d578063a2788cce146101ab57610100565b8063230796ae146101055780632fdae3c514610121578063378a21781461013d578063715018a614610147575b600080fd5b61011f600480360381019061011a9190611909565b610289565b005b61013b60048036038101906101369190611a7c565b610584565b005b61014561080e565b005b61014f6109ef565b005b610159610a77565b6040516101669190611b06565b60405180910390f35b610177610aa0565b6040516101849190611bf5565b60405180910390f35b610195610bed565b6040516101a29190611c8e565b60405180910390f35b6101c560048036038101906101c09190611909565b610c00565b6040516101d29190611bf5565b60405180910390f35b6101e3610d67565b005b6101ed610ec1565b6040516101fa9190611cb8565b60405180910390f35b61020b610ec7565b005b610215611021565b005b610231600480360381019061022c9190611cff565b61117b565b60405161023e9190611d89565b60405180910390f35b61024f6112a3565b005b61026b60048036038101906102669190611cff565b6113fd565b005b61028760048036038101906102829190611cff565b6114f4565b005b600260003373ffffffffffffffffffffffffffffffffffffffff1673ffffffffffffffffffffffffffffffffffffffff16815260200190815260200160002060000160009054906101000a900460ff16610318576040517f08c379a000000000000000000000000000000000000000000000000000000000815260040161030f90611e01565b60405180910390fd5b6003600581111561032c5761032b611c17565b5b600060149054906101000a900460ff16600581111561034e5761034d611c17565b5b1461038e576040517f08c379a000000000000000000000000000000000000000000000000000000000815260040161038590611e93565b60405180910390fd5b60011515600260003373ffffffffffffffffffffffffffffffffffffffff1673ffffffffffffffffffffffffffffffffffffffff16815260200190815260200160002060000160019054906101000a900460ff16151503610424576040517f08c379a000000000000000000000000000000000000000000000000000000000815260040161041b90611eff565b60405180910390fd5b600180549050811061046b576040517f08c379a000000000000000000000000000000000000000000000000000000000815260040161046290611f6b565b60405180910390fd5b80600260003373ffffffffffffffffffffffffffffffffffffffff1673ffffffffffffffffffffffffffffffffffffffff168152602001908152602001600020600101819055506001600260003373ffffffffffffffffffffffffffffffffffffffff1673ffffffffffffffffffffffffffffffffffffffff16815260200190815260200160002060000160016101000a81548160ff0219169083151502179055506001818154811061052157610520611f8b565b5b9060005260206000209060020201600101600081548092919061054390611fe9565b91905055507f4d99b957a2bc29a30ebd96a7be8e68fe50a3c701db28a91436490b7d53870ca43382604051610579929190612031565b60405180910390a150565b600260003373ffffffffffffffffffffffffffffffffffffffff1673ffffffffffffffffffffffffffffffffffffffff16815260200190815260200160002060000160009054906101000a900460ff16610613576040517f08c379a000000000000000000000000000000000000000000000000000000000815260040161060a90611e01565b60405180910390fd5b6001600581111561062757610626611c17565b5b600060149054906101000a900460ff16600581111561064957610648611c17565b5b14610689576040517f08c379a0000000000000000000000000000000000000000000000000000000008152600401610680906120a6565b60405180910390fd5b604051602001610698906120ec565b60405160208183030381529060405280519060200120816040516020016106bf9190612145565b6040516020818303038152906040528051906020012003610715576040517f08c379a000000000000000000000000000000000000000000000000000000000815260040161070c906121d9565b60405180910390fd5b60646001805490501061075d576040517f08c379a00000000000000000000000000000000000000000000000000000000081526004016107549061226b565b60405180910390fd5b6107656117dd565b818160000181905250600181908060018154018082558091505060019003906000526020600020906002020160009091909190915060008201518160000190805190602001906107b69291906117f7565b506020820151816001015550507f92e393e9b54e2f801d3ea4beb0c5e71a21cc34a5d34b77d0fb8a3aa1650dc18f600180805490506107f5919061228b565b6040516108029190611cb8565b60405180910390a15050565b610816611711565b73ffffffffffffffffffffffffffffffffffffffff16610834610a77565b73ffffffffffffffffffffffffffffffffffffffff161461088a576040517f08c379a00000000000000000000000000000000000000000000000000000000081526004016108819061230b565b60405180910390fd5b6004600581111561089e5761089d611c17565b5b600060149054906101000a900460ff1660058111156108c0576108bf611c17565b5b14610900576040517f08c379a00000000000000000000000000000000000000000000000000000000081526004016108f79061239d565b60405180910390fd5b600080600090505b60018054905081101561097e576001828154811061092957610928611f8b565b5b9060005260206000209060020201600101546001828154811061094f5761094e611f8b565b5b906000526020600020906002020160010154111561096b578091505b808061097690611fe9565b915050610908565b50806003819055506005600060146101000a81548160ff021916908360058111156109ac576109ab611c17565b5b02179055507f0a97a4ee45751e2abf3e4fc8946939630b11b371ea8ae39ccdc3056e98f5cc3f600460056040516109e49291906123bd565b60405180910390a150565b6109f7611711565b73ffffffffffffffffffffffffffffffffffffffff16610a15610a77565b73ffffffffffffffffffffffffffffffffffffffff1614610a6b576040517f08c379a0000000000000000000000000000000000000000000000000000000008152600401610a629061230b565b60405180910390fd5b610a756000611719565b565b60008060009054906101000a900473ffffffffffffffffffffffffffffffffffffffff16905090565b610aa86117dd565b600580811115610abb57610aba611c17565b5b600060149054906101000a900460ff166005811115610add57610adc611c17565b5b14610b1d576040517f08c379a0000000000000000000000000000000000000000000000000000000008152600401610b1490612432565b60405180910390fd5b600160035481548110610b3357610b32611f8b565b5b9060005260206000209060020201604051806040016040529081600082018054610b5c90612481565b80601f0160208091040260200160405190810160405280929190818152602001828054610b8890612481565b8015610bd55780601f10610baa57610100808354040283529160200191610bd5565b820191906000526020600020905b815481529060010190602001808311610bb857829003601f168201915b50505050508152602001600182015481525050905090565b600060149054906101000a900460ff1681565b610c086117dd565b600260003373ffffffffffffffffffffffffffffffffffffffff1673ffffffffffffffffffffffffffffffffffffffff16815260200190815260200160002060000160009054906101000a900460ff16610c97576040517f08c379a0000000000000000000000000000000000000000000000000000000008152600401610c8e90611e01565b60405180910390fd5b60018281548110610cab57610caa611f8b565b5b9060005260206000209060020201604051806040016040529081600082018054610cd490612481565b80601f0160208091040260200160405190810160405280929190818152602001828054610d0090612481565b8015610d4d5780601f10610d2257610100808354040283529160200191610d4d565b820191906000526020600020905b815481529060010190602001808311610d3057829003601f168201915b505050505081526020016001820154815250509050919050565b610d6f611711565b73ffffffffffffffffffffffffffffffffffffffff16610d8d610a77565b73ffffffffffffffffffffffffffffffffffffffff1614610de3576040517f08c379a0000000000000000000000000000000000000000000000000000000008152600401610dda9061230b565b60405180910390fd5b60036005811115610df757610df6611c17565b5b600060149054906101000a900460ff166005811115610e1957610e18611c17565b5b14610e59576040517f08c379a0000000000000000000000000000000000000000000000000000000008152600401610e5090611e93565b60405180910390fd5b6004600060146101000a81548160ff02191690836005811115610e7f57610e7e611c17565b5b02179055507f0a97a4ee45751e2abf3e4fc8946939630b11b371ea8ae39ccdc3056e98f5cc3f60036004604051610eb79291906123bd565b60405180910390a1565b60035481565b610ecf611711565b73ffffffffffffffffffffffffffffffffffffffff16610eed610a77565b73ffffffffffffffffffffffffffffffffffffffff1614610f43576040517f08c379a0000000000000000000000000000000000000000000000000000000008152600401610f3a9061230b565b60405180910390fd5b60006005811115610f5757610f56611c17565b5b600060149054906101000a900460ff166005811115610f7957610f78611c17565b5b14610fb9576040517f08c379a0000000000000000000000000000000000000000000000000000000008152600401610fb090612524565b60405180910390fd5b6001600060146101000a81548160ff02191690836005811115610fdf57610fde611c17565b5b02179055507f0a97a4ee45751e2abf3e4fc8946939630b11b371ea8ae39ccdc3056e98f5cc3f600060016040516110179291906123bd565b60405180910390a1565b611029611711565b73ffffffffffffffffffffffffffffffffffffffff16611047610a77565b73ffffffffffffffffffffffffffffffffffffffff161461109d576040517f08c379a00000000000000000000000000000000000000000000000000000000081526004016110949061230b565b60405180910390fd5b600160058111156110b1576110b0611c17565b5b600060149054906101000a900460ff1660058111156110d3576110d2611c17565b5b14611113576040517f08c379a000000000000000000000000000000000000000000000000000000000815260040161110a906125b6565b60405180910390fd5b6002600060146101000a81548160ff0219169083600581111561113957611138611c17565b5b02179055507f0a97a4ee45751e2abf3e4fc8946939630b11b371ea8ae39ccdc3056e98f5cc3f600160026040516111719291906123bd565b60405180910390a1565b61118361187d565b600260003373ffffffffffffffffffffffffffffffffffffffff1673ffffffffffffffffffffffffffffffffffffffff16815260200190815260200160002060000160009054906101000a900460ff16611212576040517f08c379a000000000000000000000000000000000000000000000000000000000815260040161120990611e01565b60405180910390fd5b600260008373ffffffffffffffffffffffffffffffffffffffff1673ffffffffffffffffffffffffffffffffffffffff1681526020019081526020016000206040518060600160405290816000820160009054906101000a900460ff161515151581526020016000820160019054906101000a900460ff161515151581526020016001820154815250509050919050565b6112ab611711565b73ffffffffffffffffffffffffffffffffffffffff166112c9610a77565b73ffffffffffffffffffffffffffffffffffffffff161461131f576040517f08c379a00000000000000000000000000000000000000000000000000000000081526004016113169061230b565b60405180910390fd5b6002600581111561133357611332611c17565b5b600060149054906101000a900460ff16600581111561135557611354611c17565b5b14611395576040517f08c379a000000000000000000000000000000000000000000000000000000000815260040161138c90612648565b60405180910390fd5b6003600060146101000a81548160ff021916908360058111156113bb576113ba611c17565b5b02179055507f0a97a4ee45751e2abf3e4fc8946939630b11b371ea8ae39ccdc3056e98f5cc3f600260036040516113f39291906123bd565b60405180910390a1565b611405611711565b73ffffffffffffffffffffffffffffffffffffffff16611423610a77565b73ffffffffffffffffffffffffffffffffffffffff1614611479576040517f08c379a00000000000000000000000000000000000000000000000000000000081526004016114709061230b565b60405180910390fd5b600073ffffffffffffffffffffffffffffffffffffffff168173ffffffffffffffffffffffffffffffffffffffff16036114e8576040517f08c379a00000000000000000000000000000000000000000000000000000000081526004016114df906126da565b60405180910390fd5b6114f181611719565b50565b6114fc611711565b73ffffffffffffffffffffffffffffffffffffffff1661151a610a77565b73ffffffffffffffffffffffffffffffffffffffff1614611570576040517f08c379a00000000000000000000000000000000000000000000000000000000081526004016115679061230b565b60405180910390fd5b6000600581111561158457611583611c17565b5b600060149054906101000a900460ff1660058111156115a6576115a5611c17565b5b146115e6576040517f08c379a00000000000000000000000000000000000000000000000000000000081526004016115dd9061276c565b60405180910390fd5b60011515600260008373ffffffffffffffffffffffffffffffffffffffff1673ffffffffffffffffffffffffffffffffffffffff16815260200190815260200160002060000160009054906101000a900460ff1615150361167c576040517f08c379a0000000000000000000000000000000000000000000000000000000008152600401611673906127d8565b60405180910390fd5b6001600260008373ffffffffffffffffffffffffffffffffffffffff1673ffffffffffffffffffffffffffffffffffffffff16815260200190815260200160002060000160006101000a81548160ff0219169083151502179055507fb6be2187d059cc2a55fe29e0e503b566e1e0f8c8780096e185429350acffd3dd816040516117069190611b06565b60405180910390a150565b600033905090565b60008060009054906101000a900473ffffffffffffffffffffffffffffffffffffffff169050816000806101000a81548173ffffffffffffffffffffffffffffffffffffffff021916908373ffffffffffffffffffffffffffffffffffffffff1602179055508173ffffffffffffffffffffffffffffffffffffffff168173ffffffffffffffffffffffffffffffffffffffff167f8be0079c531659141344cd1fd0a4f28419497f9722a3daafe3b4186f6b6457e060405160405180910390a35050565b604051806040016040528060608152602001600081525090565b82805461180390612481565b90600052602060002090601f016020900481019282611825576000855561186c565b82601f1061183e57805160ff191683800117855561186c565b8280016001018555821561186c579182015b8281111561186b578251825591602001919060010190611850565b5b50905061187991906118a2565b5090565b6040518060600160405280600015158152602001600015158152602001600081525090565b5b808211156118bb5760008160009055506001016118a3565b5090565b6000604051905090565b600080fd5b600080fd5b6000819050919050565b6118e6816118d3565b81146118f157600080fd5b50565b600081359050611903816118dd565b92915050565b60006020828403121561191f5761191e6118c9565b5b600061192d848285016118f4565b91505092915050565b600080fd5b600080fd5b6000601f19601f8301169050919050565b7f4e487b7100000000000000000000000000000000000000000000000000000000600052604160045260246000fd5b61198982611940565b810181811067ffffffffffffffff821117156119a8576119a7611951565b5b80604052505050565b60006119bb6118bf565b90506119c78282611980565b919050565b600067ffffffffffffffff8211156119e7576119e6611951565b5b6119f082611940565b9050602081019050919050565b82818337600083830152505050565b6000611a1f611a1a846119cc565b6119b1565b905082815260208101848484011115611a3b57611a3a61193b565b5b611a468482856119fd565b509392505050565b600082601f830112611a6357611a62611936565b5b8135611a73848260208601611a0c565b91505092915050565b600060208284031215611a9257611a916118c9565b5b600082013567ffffffffffffffff811115611ab057611aaf6118ce565b5b611abc84828501611a4e565b91505092915050565b600073ffffffffffffffffffffffffffffffffffffffff82169050919050565b6000611af082611ac5565b9050919050565b611b0081611ae5565b82525050565b6000602082019050611b1b6000830184611af7565b92915050565b600081519050919050565b600082825260208201905092915050565b60005b83811015611b5b578082015181840152602081019050611b40565b83811115611b6a576000848401525b50505050565b6000611b7b82611b21565b611b858185611b2c565b9350611b95818560208601611b3d565b611b9e81611940565b840191505092915050565b611bb2816118d3565b82525050565b60006040830160008301518482036000860152611bd58282611b70565b9150506020830151611bea6020860182611ba9565b508091505092915050565b60006020820190508181036000830152611c0f8184611bb8565b905092915050565b7f4e487b7100000000000000000000000000000000000000000000000000000000600052602160045260246000fd5b60068110611c5757611c56611c17565b5b50565b6000819050611c6882611c46565b919050565b6000611c7882611c5a565b9050919050565b611c8881611c6d565b82525050565b6000602082019050611ca36000830184611c7f565b92915050565b611cb2816118d3565b82525050565b6000602082019050611ccd6000830184611ca9565b92915050565b611cdc81611ae5565b8114611ce757600080fd5b50565b600081359050611cf981611cd3565b92915050565b600060208284031215611d1557611d146118c9565b5b6000611d2384828501611cea565b91505092915050565b60008115159050919050565b611d4181611d2c565b82525050565b606082016000820151611d5d6000850182611d38565b506020820151611d706020850182611d38565b506040820151611d836040850182611ba9565b50505050565b6000606082019050611d9e6000830184611d47565b92915050565b600082825260208201905092915050565b7f596f75277265206e6f74206120766f7465720000000000000000000000000000600082015250565b6000611deb601283611da4565b9150611df682611db5565b602082019050919050565b60006020820190508181036000830152611e1a81611dde565b9050919050565b7f566f74696e672073657373696f6e20686176656e74207374617274656420796560008201527f7400000000000000000000000000000000000000000000000000000000000000602082015250565b6000611e7d602183611da4565b9150611e8882611e21565b604082019050919050565b60006020820190508181036000830152611eac81611e70565b9050919050565b7f596f75206861766520616c726561647920766f74656400000000000000000000600082015250565b6000611ee9601683611da4565b9150611ef482611eb3565b602082019050919050565b60006020820190508181036000830152611f1881611edc565b9050919050565b7f50726f706f73616c206e6f7420666f756e640000000000000000000000000000600082015250565b6000611f55601283611da4565b9150611f6082611f1f565b602082019050919050565b60006020820190508181036000830152611f8481611f48565b9050919050565b7f4e487b7100000000000000000000000000000000000000000000000000000000600052603260045260246000fd5b7f4e487b7100000000000000000000000000000000000000000000000000000000600052601160045260246000fd5b6000611ff4826118d3565b91507fffffffffffffffffffffffffffffffffffffffffffffffffffffffffffffffff820361202657612025611fba565b5b600182019050919050565b60006040820190506120466000830185611af7565b6120536020830184611ca9565b9392505050565b7f50726f706f73616c7320617265206e6f7420616c6c6f77656420796574000000600082015250565b6000612090601d83611da4565b915061209b8261205a565b602082019050919050565b600060208201905081810360008301526120bf81612083565b9050919050565b50565b60006120d6600083611da4565b91506120e1826120c6565b600082019050919050565b60006020820190508181036000830152612105816120c9565b9050919050565b600061211782611b21565b6121218185611da4565b9350612131818560208601611b3d565b61213a81611940565b840191505092915050565b6000602082019050818103600083015261215f818461210c565b905092915050565b7f566f7573206e6520706f7576657a20706173206e65207269656e2070726f706f60008201527f7365720000000000000000000000000000000000000000000000000000000000602082015250565b60006121c3602383611da4565b91506121ce82612167565b604082019050919050565b600060208201905081810360008301526121f2816121b6565b9050919050565b7f4f6e206e6520706575742070617320616363657074657220706c75732064652060008201527f3130302070726f706f736974696f6e7300000000000000000000000000000000602082015250565b6000612255603083611da4565b9150612260826121f9565b604082019050919050565b6000602082019050818103600083015261228481612248565b9050919050565b6000612296826118d3565b91506122a1836118d3565b9250828210156122b4576122b3611fba565b5b828203905092915050565b7f4f776e61626c653a2063616c6c6572206973206e6f7420746865206f776e6572600082015250565b60006122f5602083611da4565b9150612300826122bf565b602082019050919050565b60006020820190508181036000830152612324816122e8565b9050919050565b7f43757272656e7420737461747573206973206e6f7420766f74696e672073657360008201527f73696f6e20656e64656400000000000000000000000000000000000000000000602082015250565b6000612387602a83611da4565b91506123928261232b565b604082019050919050565b600060208201905081810360008301526123b68161237a565b9050919050565b60006040820190506123d26000830185611c7f565b6123df6020830184611c7f565b9392505050565b7f566f74657320617265206e6f742074616c6c6965642079657400000000000000600082015250565b600061241c601983611da4565b9150612427826123e6565b602082019050919050565b6000602082019050818103600083015261244b8161240f565b9050919050565b7f4e487b7100000000000000000000000000000000000000000000000000000000600052602260045260246000fd5b6000600282049050600182168061249957607f821691505b6020821081036124ac576124ab612452565b5b50919050565b7f5265676973746572696e672070726f706f73616c732063616e7420626520737460008201527f6172746564206e6f770000000000000000000000000000000000000000000000602082015250565b600061250e602983611da4565b9150612519826124b2565b604082019050919050565b6000602082019050818103600083015261253d81612501565b9050919050565b7f5265676973746572696e672070726f706f73616c7320686176656e742073746160008201527f7274656420796574000000000000000000000000000000000000000000000000602082015250565b60006125a0602883611da4565b91506125ab82612544565b604082019050919050565b600060208201905081810360008301526125cf81612593565b9050919050565b7f5265676973746572696e672070726f706f73616c73207068617365206973206e60008201527f6f742066696e6973686564000000000000000000000000000000000000000000602082015250565b6000612632602b83611da4565b915061263d826125d6565b604082019050919050565b6000602082019050818103600083015261266181612625565b9050919050565b7f4f776e61626c653a206e6577206f776e657220697320746865207a65726f206160008201527f6464726573730000000000000000000000000000000000000000000000000000602082015250565b60006126c4602683611da4565b91506126cf82612668565b604082019050919050565b600060208201905081810360008301526126f3816126b7565b9050919050565b7f566f7465727320726567697374726174696f6e206973206e6f74206f70656e2060008201527f7965740000000000000000000000000000000000000000000000000000000000602082015250565b6000612756602383611da4565b9150612761826126fa565b604082019050919050565b6000602082019050818103600083015261278581612749565b9050919050565b7f416c726561647920726567697374657265640000000000000000000000000000600082015250565b60006127c2601283611da4565b91506127cd8261278c565b602082019050919050565b600060208201905081810360008301526127f1816127b5565b905091905056fea2646970667358221220b5ca9fe889f7a37f4a23ea768b0990736bdba00203818e73d70f84ff1c82e74964736f6c634300080d0033",
  "immutableReferences": {},
  "source": "// SPDX-License-Identifier: MIT\n\npragma solidity 0.8.13;\nimport \"../node_modules/@openzeppelin/contracts/access/Ownable.sol\";\n\n/**\n * @title Vote system\n * @notice Smart voting contract for a small organization\n * @author Arnaud Giraud\n */\n\ncontract Voting is Ownable {\n\n    ///@dev Voter information\n    struct Voter {\n        bool isRegistered;\n        bool hasVoted;\n        uint votedProposalId;\n    }\n\n    ///@dev Proposal information\n    struct Proposal {\n        string description;\n        uint voteCount;\n    }\n\n    ///@dev State of vote system\n    enum  WorkflowStatus {\n        RegisteringVoters,\n        ProposalsRegistrationStarted,\n        ProposalsRegistrationEnded,\n        VotingSessionStarted,\n        VotingSessionEnded,\n        VotesTallied\n    }\n\n    ///@dev state status\n    WorkflowStatus public workflowStatus;\n\n    ///@dev Array of proposals\n    Proposal[] proposalsArray;\n    \n    ///@dev Mapping of voters\n    mapping (address => Voter) voters;\n    \n    ///@dev ID of the winning proposal\n    uint public winningProposalID;\n\n    ///@dev Event when voter is registered\n    ///@param voterAddress The voter address registered\n    event VoterRegistered(address voterAddress);\n\n    ///@dev Event when the worflow status change\n    ///@param previousStatus The previous status\n    ///@param newStatus The new status\n    event WorkflowStatusChange(WorkflowStatus previousStatus, WorkflowStatus newStatus);\n    \n    ///@dev Event when a proposal is registered\n    ///@param proposalId proposal id\n    event ProposalRegistered(uint proposalId);\n\n    ///@dev Event when a voter vote for a proposal\n    ///@param voter Voter's address\n    ///@param proposalId Proposal Id\n    event Voted (address voter, uint proposalId);\n\n    ///@dev Check if only registered voters can access\n    modifier onlyVoters() {\n        require(voters[msg.sender].isRegistered, \"You're not a voter\");\n        _;\n    }\n\n    \n\n    // ::::::::::::: GETTERS ::::::::::::: //\n\n    ///@notice Get voter information\n    ///@dev Whitelisted voter can view voter information\n    ///@param _addr voter address\n    ///@return voters details\n    function getVoter(address _addr) external onlyVoters view returns (Voter memory) {\n        return voters[_addr];\n    }\n\n    ///@notice Get a proposal\n    ///@dev Whitelisted voter can view a proposal\n    ///@param _id Proposal Id\n    ///@return A proposal\n    function getOneProposal(uint _id) external onlyVoters view returns (Proposal memory) {\n        return proposalsArray[_id];\n    }\n\n    ///@notice Get the winning proposal\n    ///@dev Everyone can view the winning proposal\n    ///@return The winning proposal\n    function getWinner() external view returns (Proposal memory) {\n        require(workflowStatus == WorkflowStatus.VotesTallied, 'Votes are not tallied yet');\n        return proposalsArray[winningProposalID];\n    }\n\n\n    // ::::::::::::: REGISTRATION ::::::::::::: //\n\n    ///@notice Owner add a new voter\n    ///@dev Owner add a new voter, the status must be RegisteringVoters\n    ///@param _addr Voter address\n    function addVoter(address _addr) external onlyOwner {\n        require(workflowStatus == WorkflowStatus.RegisteringVoters, 'Voters registration is not open yet');\n        require(voters[_addr].isRegistered != true, 'Already registered');\n\n        voters[_addr].isRegistered = true;\n        emit VoterRegistered(_addr);\n    }\n\n    \n    // ::::::::::::: PROPOSAL ::::::::::::: //\n\n    ///@notice Voter can add a proposal\n    ///@dev Voter can add a proposal, the status must be ProposalsRegistrationStarted\n    ///@param _desc Description of the proposal\n    function addProposal(string memory _desc) external onlyVoters {\n        require(workflowStatus == WorkflowStatus.ProposalsRegistrationStarted, 'Proposals are not allowed yet');\n        require(keccak256(abi.encode(_desc)) != keccak256(abi.encode(\"\")), 'Vous ne pouvez pas ne rien proposer');\n        require(proposalsArray.length < 100, 'On ne peut pas accepter plus de 100 propositions');\n        Proposal memory proposal;\n        proposal.description = _desc;\n        proposalsArray.push(proposal);\n        emit ProposalRegistered(proposalsArray.length-1);\n    }\n\n    // ::::::::::::: VOTE ::::::::::::: //\n\n    ///@notice Voters vote for a proposal\n    ///@dev Voters vote for a proposal, the status must be VotingSessionStarted\n    ///@param _id Proposal id\n    function setVote( uint _id) external onlyVoters {\n        require(workflowStatus == WorkflowStatus.VotingSessionStarted, 'Voting session havent started yet');\n        require(voters[msg.sender].hasVoted != true, 'You have already voted');\n        require(_id < proposalsArray.length, 'Proposal not found');\n        voters[msg.sender].votedProposalId = _id;\n        voters[msg.sender].hasVoted = true;\n        proposalsArray[_id].voteCount++;\n        emit Voted(msg.sender, _id);\n    }\n\n    // ::::::::::::: STATE ::::::::::::: //\n\n    ///@notice Owner start the proposal registration status\n    ///@dev Owner start the proposal registration status, the status must be RegisteringVoters\n    function startProposalsRegistering() external onlyOwner {\n        require(workflowStatus == WorkflowStatus.RegisteringVoters, 'Registering proposals cant be started now');\n        workflowStatus = WorkflowStatus.ProposalsRegistrationStarted;\n        emit WorkflowStatusChange(WorkflowStatus.RegisteringVoters, WorkflowStatus.ProposalsRegistrationStarted);\n    }\n\n    ///@notice Owner end the proposal registration status\n    ///@dev Owner end the proposal registration status, the status must be ProposalsRegistrationStarted\n    function endProposalsRegistering() external onlyOwner {\n        require(workflowStatus == WorkflowStatus.ProposalsRegistrationStarted, 'Registering proposals havent started yet');\n        workflowStatus = WorkflowStatus.ProposalsRegistrationEnded;\n        emit WorkflowStatusChange(WorkflowStatus.ProposalsRegistrationStarted, WorkflowStatus.ProposalsRegistrationEnded);\n    }\n\n    ///@notice Owner start the voting session\n    ///@dev Owner start the voting session, the status must be ProposalsRegistrationEnded\n    function startVotingSession() external onlyOwner {\n        require(workflowStatus == WorkflowStatus.ProposalsRegistrationEnded, 'Registering proposals phase is not finished');\n        workflowStatus = WorkflowStatus.VotingSessionStarted;\n        emit WorkflowStatusChange(WorkflowStatus.ProposalsRegistrationEnded, WorkflowStatus.VotingSessionStarted);\n    }\n\n    ///@notice Owner end the voting session\n    ///@dev Owner end the voting session, the status must be VotingSessionStarted\n    function endVotingSession() external onlyOwner {\n        require(workflowStatus == WorkflowStatus.VotingSessionStarted, 'Voting session havent started yet');\n        workflowStatus = WorkflowStatus.VotingSessionEnded;\n        emit WorkflowStatusChange(WorkflowStatus.VotingSessionStarted, WorkflowStatus.VotingSessionEnded);\n    }\n\n    ///@notice Owner tallies the votes\n    ///@dev Owner tallies the votes, the status must be VotingSessionEnded\n   function tallyVotes() external onlyOwner {\n       require(workflowStatus == WorkflowStatus.VotingSessionEnded, \"Current status is not voting session ended\");\n       uint _winningProposalId;\n      for (uint256 p = 0; p < proposalsArray.length; p++) {\n           if (proposalsArray[p].voteCount > proposalsArray[_winningProposalId].voteCount) {\n               _winningProposalId = p;\n          }\n       }\n       winningProposalID = _winningProposalId;\n\n       workflowStatus = WorkflowStatus.VotesTallied;\n       emit WorkflowStatusChange(WorkflowStatus.VotingSessionEnded, WorkflowStatus.VotesTallied);\n    }\n}",
  "sourcePath": "/Users/nono/Alyra3/contracts/Voting.sol",
  "compiler": {
    "name": "solc",
    "version": "0.8.13+commit.abaa5c0e.Emscripten.clang"
  },
  "schemaVersion": "3.4.7",
  "updatedAt": "2022-04-26T10:02:16.468Z",
  "networkType": "ethereum",
  "devdoc": {
    "author": "Arnaud Giraud",
    "events": {
      "ProposalRegistered(uint256)": {
        "details": "Event when a proposal is registered",
        "params": {
          "proposalId": "proposal id"
        }
      },
      "Voted(address,uint256)": {
        "details": "Event when a voter vote for a proposal",
        "params": {
          "proposalId": "Proposal Id",
          "voter": "Voter's address"
        }
      },
      "VoterRegistered(address)": {
        "details": "Event when voter is registered",
        "params": {
          "voterAddress": "The voter address registered"
        }
      },
      "WorkflowStatusChange(uint8,uint8)": {
        "details": "Event when the worflow status change",
        "params": {
          "newStatus": "The new status",
          "previousStatus": "The previous status"
        }
      }
    },
    "kind": "dev",
    "methods": {
      "addProposal(string)": {
        "details": "Voter can add a proposal, the status must be ProposalsRegistrationStarted",
        "params": {
          "_desc": "Description of the proposal"
        }
      },
      "addVoter(address)": {
        "details": "Owner add a new voter, the status must be RegisteringVoters",
        "params": {
          "_addr": "Voter address"
        }
      },
      "endProposalsRegistering()": {
        "details": "Owner end the proposal registration status, the status must be ProposalsRegistrationStarted"
      },
      "endVotingSession()": {
        "details": "Owner end the voting session, the status must be VotingSessionStarted"
      },
      "getOneProposal(uint256)": {
        "details": "Whitelisted voter can view a proposal",
        "params": {
          "_id": "Proposal Id"
        },
        "returns": {
          "_0": "A proposal"
        }
      },
      "getVoter(address)": {
        "details": "Whitelisted voter can view voter information",
        "params": {
          "_addr": "voter address"
        },
        "returns": {
          "_0": "voters details"
        }
      },
      "getWinner()": {
        "details": "Everyone can view the winning proposal",
        "returns": {
          "_0": "The winning proposal"
        }
      },
      "owner()": {
        "details": "Returns the address of the current owner."
      },
      "renounceOwnership()": {
        "details": "Leaves the contract without owner. It will not be possible to call `onlyOwner` functions anymore. Can only be called by the current owner. NOTE: Renouncing ownership will leave the contract without an owner, thereby removing any functionality that is only available to the owner."
      },
      "setVote(uint256)": {
        "details": "Voters vote for a proposal, the status must be VotingSessionStarted",
        "params": {
          "_id": "Proposal id"
        }
      },
      "startProposalsRegistering()": {
        "details": "Owner start the proposal registration status, the status must be RegisteringVoters"
      },
      "startVotingSession()": {
        "details": "Owner start the voting session, the status must be ProposalsRegistrationEnded"
      },
      "tallyVotes()": {
        "details": "Owner tallies the votes, the status must be VotingSessionEnded"
      },
      "transferOwnership(address)": {
        "details": "Transfers ownership of the contract to a new account (`newOwner`). Can only be called by the current owner."
      }
    },
    "stateVariables": {
      "proposalsArray": {
        "details": "Array of proposals"
      },
      "voters": {
        "details": "Mapping of voters"
      },
      "winningProposalID": {
        "details": "ID of the winning proposal"
      },
      "workflowStatus": {
        "details": "state status"
      }
    },
    "title": "Vote system",
    "version": 1
  },
  "userdoc": {
    "kind": "user",
    "methods": {
      "addProposal(string)": {
        "notice": "Voter can add a proposal"
      },
      "addVoter(address)": {
        "notice": "Owner add a new voter"
      },
      "endProposalsRegistering()": {
        "notice": "Owner end the proposal registration status"
      },
      "endVotingSession()": {
        "notice": "Owner end the voting session"
      },
      "getOneProposal(uint256)": {
        "notice": "Get a proposal"
      },
      "getVoter(address)": {
        "notice": "Get voter information"
      },
      "getWinner()": {
        "notice": "Get the winning proposal"
      },
      "setVote(uint256)": {
        "notice": "Voters vote for a proposal"
      },
      "startProposalsRegistering()": {
        "notice": "Owner start the proposal registration status"
      },
      "startVotingSession()": {
        "notice": "Owner start the voting session"
      },
      "tallyVotes()": {
        "notice": "Owner tallies the votes"
      }
    },
    "notice": "Smart voting contract for a small organization",
    "version": 1
  }
}